{
  "contractName": "Ballot",
  "abi": [
    {
      "inputs": [
        {
          "internalType": "string[]",
          "name": "_candidateNames",
          "type": "string[]"
        }
      ],
      "stateMutability": "nonpayable",
      "type": "constructor"
    },
    {
      "anonymous": false,
      "inputs": [
        {
          "indexed": true,
          "internalType": "address",
          "name": "voter",
          "type": "address"
        },
        {
          "indexed": false,
          "internalType": "uint256",
          "name": "candidateId",
          "type": "uint256"
        }
      ],
      "name": "Voted",
      "type": "event"
    },
    {
      "inputs": [
        {
          "internalType": "uint256",
          "name": "",
          "type": "uint256"
        }
      ],
      "name": "candidates",
      "outputs": [
        {
          "internalType": "uint256",
          "name": "id",
          "type": "uint256"
        },
        {
          "internalType": "string",
          "name": "name",
          "type": "string"
        },
        {
          "internalType": "uint256",
          "name": "voteCount",
          "type": "uint256"
        }
      ],
      "stateMutability": "view",
      "type": "function"
    },
    {
      "inputs": [
        {
          "internalType": "address",
          "name": "",
          "type": "address"
        }
      ],
      "name": "voters",
      "outputs": [
        {
          "internalType": "bool",
          "name": "voted",
          "type": "bool"
        },
        {
          "internalType": "uint256",
          "name": "candidateId",
          "type": "uint256"
        }
      ],
      "stateMutability": "view",
      "type": "function"
    },
    {
      "inputs": [
        {
          "internalType": "uint256",
          "name": "_candidateId",
          "type": "uint256"
        }
      ],
      "name": "vote",
      "outputs": [],
      "stateMutability": "nonpayable",
      "type": "function"
    },
    {
      "inputs": [],
      "name": "getCandidateCount",
      "outputs": [
        {
          "internalType": "uint256",
          "name": "",
          "type": "uint256"
        }
      ],
      "stateMutability": "view",
      "type": "function"
    },
    {
      "inputs": [
        {
          "internalType": "uint256",
          "name": "_candidateId",
          "type": "uint256"
        }
      ],
      "name": "getCandidate",
      "outputs": [
        {
          "internalType": "uint256",
          "name": "id",
          "type": "uint256"
        },
        {
          "internalType": "string",
          "name": "name",
          "type": "string"
        },
        {
          "internalType": "uint256",
          "name": "voteCount",
          "type": "uint256"
        }
      ],
      "stateMutability": "view",
      "type": "function"
    }
  ],
  "bytecode": "0x608060405234801562000010575f80fd5b50604051620010e8380380620010e8833981810160405281019062000036919062000369565b5f5b8151811015620000e457600160405180606001604052808381526020018484815181106200006b576200006a620003b8565b5b602002602001015181526020015f815250908060018154018082558091505060019003905f5260205f2090600302015f909190919091505f820151815f01556020820151816001019081620000c191906200061c565b506040820151816002015550508080620000db906200072d565b91505062000038565b505062000779565b5f604051905090565b5f80fd5b5f80fd5b5f80fd5b5f601f19601f8301169050919050565b7f4e487b71000000000000000000000000000000000000000000000000000000005f52604160045260245ffd5b620001498262000101565b810181811067ffffffffffffffff821117156200016b576200016a62000111565b5b80604052505050565b5f6200017f620000ec565b90506200018d82826200013e565b919050565b5f67ffffffffffffffff821115620001af57620001ae62000111565b5b602082029050602081019050919050565b5f80fd5b5f80fd5b5f67ffffffffffffffff821115620001e557620001e462000111565b5b620001f08262000101565b9050602081019050919050565b5f5b838110156200021c578082015181840152602081019050620001ff565b5f8484015250505050565b5f6200023d6200023784620001c8565b62000174565b9050828152602081018484840111156200025c576200025b620001c4565b5b62000269848285620001fd565b509392505050565b5f82601f830112620002885762000287620000fd565b5b81516200029a84826020860162000227565b91505092915050565b5f620002b9620002b38462000192565b62000174565b90508083825260208201905060208402830185811115620002df57620002de620001c0565b5b835b818110156200032d57805167ffffffffffffffff811115620003085762000307620000fd565b5b80860162000317898262000271565b85526020850194505050602081019050620002e1565b5050509392505050565b5f82601f8301126200034e576200034d620000fd565b5b815162000360848260208601620002a3565b91505092915050565b5f60208284031215620003815762000380620000f5565b5b5f82015167ffffffffffffffff811115620003a157620003a0620000f9565b5b620003af8482850162000337565b91505092915050565b7f4e487b71000000000000000000000000000000000000000000000000000000005f52603260045260245ffd5b5f81519050919050565b7f4e487b71000000000000000000000000000000000000000000000000000000005f52602260045260245ffd5b5f60028204905060018216806200043457607f821691505b6020821081036200044a5762000449620003ef565b5b50919050565b5f819050815f5260205f209050919050565b5f6020601f8301049050919050565b5f82821b905092915050565b5f60088302620004ae7fffffffffffffffffffffffffffffffffffffffffffffffffffffffffffffffff8262000471565b620004ba868362000471565b95508019841693508086168417925050509392505050565b5f819050919050565b5f819050919050565b5f62000504620004fe620004f884620004d2565b620004db565b620004d2565b9050919050565b5f819050919050565b6200051f83620004e4565b620005376200052e826200050b565b8484546200047d565b825550505050565b5f90565b6200054d6200053f565b6200055a81848462000514565b505050565b5b818110156200058157620005755f8262000543565b60018101905062000560565b5050565b601f821115620005d0576200059a8162000450565b620005a58462000462565b81016020851015620005b5578190505b620005cd620005c48562000462565b8301826200055f565b50505b505050565b5f82821c905092915050565b5f620005f25f1984600802620005d5565b1980831691505092915050565b5f6200060c8383620005e1565b9150826002028217905092915050565b6200062782620003e5565b67ffffffffffffffff81111562000643576200064262000111565b5b6200064f82546200041c565b6200065c82828562000585565b5f60209050601f83116001811462000692575f84156200067d578287015190505b620006898582620005ff565b865550620006f8565b601f198416620006a28662000450565b5f5b82811015620006cb57848901518255600182019150602085019450602081019050620006a4565b86831015620006eb5784890151620006e7601f891682620005e1565b8355505b6001600288020188555050505b505050505050565b7f4e487b71000000000000000000000000000000000000000000000000000000005f52601160045260245ffd5b5f6200073982620004d2565b91507fffffffffffffffffffffffffffffffffffffffffffffffffffffffffffffffff82036200076e576200076d62000700565b5b600182019050919050565b61096180620007875f395ff3fe608060405234801561000f575f80fd5b5060043610610055575f3560e01c80630121b93f1461005957806330a56347146100755780633477ee2e1461009357806335b8e820146100c5578063a3ec138d146100f7575b5f80fd5b610073600480360381019061006e919061057e565b610128565b005b61007d61031d565b60405161008a91906105b8565b60405180910390f35b6100ad60048036038101906100a8919061057e565b610329565b6040516100bc9392919061065b565b60405180910390f35b6100df60048036038101906100da919061057e565b6103e4565b6040516100ee9392919061065b565b60405180910390f35b610111600480360381019061010c91906106f1565b61051c565b60405161011f929190610736565b60405180910390f35b5f803373ffffffffffffffffffffffffffffffffffffffff1673ffffffffffffffffffffffffffffffffffffffff1681526020019081526020015f205f015f9054906101000a900460ff16156101b3576040517f08c379a00000000000000000000000000000000000000000000000000000000081526004016101aa906107a7565b60405180910390fd5b60018054905081106101fa576040517f08c379a00000000000000000000000000000000000000000000000000000000081526004016101f19061080f565b60405180910390fd5b60015f803373ffffffffffffffffffffffffffffffffffffffff1673ffffffffffffffffffffffffffffffffffffffff1681526020019081526020015f205f015f6101000a81548160ff021916908315150217905550805f803373ffffffffffffffffffffffffffffffffffffffff1673ffffffffffffffffffffffffffffffffffffffff1681526020019081526020015f2060010181905550600181815481106102a8576102a761082d565b5b905f5260205f2090600302016002015f8154809291906102c790610887565b91905055503373ffffffffffffffffffffffffffffffffffffffff167f4d99b957a2bc29a30ebd96a7be8e68fe50a3c701db28a91436490b7d53870ca48260405161031291906105b8565b60405180910390a250565b5f600180549050905090565b60018181548110610338575f80fd5b905f5260205f2090600302015f91509050805f01549080600101805461035d906108fb565b80601f0160208091040260200160405190810160405280929190818152602001828054610389906108fb565b80156103d45780601f106103ab576101008083540402835291602001916103d4565b820191905f5260205f20905b8154815290600101906020018083116103b757829003601f168201915b5050505050908060020154905083565b5f60605f600180549050841061042f576040517f08c379a00000000000000000000000000000000000000000000000000000000081526004016104269061080f565b60405180910390fd5b5f600185815481106104445761044361082d565b5b905f5260205f2090600302016040518060600160405290815f8201548152602001600182018054610474906108fb565b80601f01602080910402602001604051908101604052809291908181526020018280546104a0906108fb565b80156104eb5780601f106104c2576101008083540402835291602001916104eb565b820191905f5260205f20905b8154815290600101906020018083116104ce57829003601f168201915b505050505081526020016002820154815250509050805f015181602001518260400151935093509350509193909250565b5f602052805f5260405f205f91509050805f015f9054906101000a900460ff16908060010154905082565b5f80fd5b5f819050919050565b61055d8161054b565b8114610567575f80fd5b50565b5f8135905061057881610554565b92915050565b5f6020828403121561059357610592610547565b5b5f6105a08482850161056a565b91505092915050565b6105b28161054b565b82525050565b5f6020820190506105cb5f8301846105a9565b92915050565b5f81519050919050565b5f82825260208201905092915050565b5f5b838110156106085780820151818401526020810190506105ed565b5f8484015250505050565b5f601f19601f8301169050919050565b5f61062d826105d1565b61063781856105db565b93506106478185602086016105eb565b61065081610613565b840191505092915050565b5f60608201905061066e5f8301866105a9565b81810360208301526106808185610623565b905061068f60408301846105a9565b949350505050565b5f73ffffffffffffffffffffffffffffffffffffffff82169050919050565b5f6106c082610697565b9050919050565b6106d0816106b6565b81146106da575f80fd5b50565b5f813590506106eb816106c7565b92915050565b5f6020828403121561070657610705610547565b5b5f610713848285016106dd565b91505092915050565b5f8115159050919050565b6107308161071c565b82525050565b5f6040820190506107495f830185610727565b61075660208301846105a9565b9392505050565b7f416c726561647920766f7465642e0000000000000000000000000000000000005f82015250565b5f610791600e836105db565b915061079c8261075d565b602082019050919050565b5f6020820190508181035f8301526107be81610785565b9050919050565b7f496e76616c69642063616e6469646174652e00000000000000000000000000005f82015250565b5f6107f96012836105db565b9150610804826107c5565b602082019050919050565b5f6020820190508181035f830152610826816107ed565b9050919050565b7f4e487b71000000000000000000000000000000000000000000000000000000005f52603260045260245ffd5b7f4e487b71000000000000000000000000000000000000000000000000000000005f52601160045260245ffd5b5f6108918261054b565b91507fffffffffffffffffffffffffffffffffffffffffffffffffffffffffffffffff82036108c3576108c261085a565b5b600182019050919050565b7f4e487b71000000000000000000000000000000000000000000000000000000005f52602260045260245ffd5b5f600282049050600182168061091257607f821691505b602082108103610925576109246108ce565b5b5091905056fea2646970667358221220ec3d033d6be866b9a196bef2fbcbfa9f70ddd26380b621da418845ed39890df564736f6c63430008150033",
  "immutableReferences": {},
  "source": "// SPDX-License-Identifier: MIT\r\npragma solidity ^0.8.0;\r\n\r\ncontract Ballot {\r\n    struct Voter {\r\n        bool voted;\r\n        uint256 candidateId;\r\n    }\r\n\r\n    struct Candidate {\r\n        uint256 id;\r\n        string name;\r\n        uint256 voteCount;\r\n    }\r\n\r\n    mapping(address => Voter) public voters;\r\n    Candidate[] public candidates;\r\n\r\n    event Voted(address indexed voter, uint256 candidateId);\r\n\r\n    constructor(string[] memory _candidateNames) {\r\n        for (uint256 i = 0; i < _candidateNames.length; i++) {\r\n            candidates.push(Candidate({\r\n                id: i,\r\n                name: _candidateNames[i],\r\n                voteCount: 0\r\n            }));\r\n        }\r\n    }\r\n\r\n    function vote(uint256 _candidateId) public {\r\n        require(!voters[msg.sender].voted, \"Already voted.\");\r\n        require(_candidateId < candidates.length, \"Invalid candidate.\");\r\n\r\n        voters[msg.sender].voted = true;\r\n        voters[msg.sender].candidateId = _candidateId;\r\n        candidates[_candidateId].voteCount++;\r\n\r\n        emit Voted(msg.sender, _candidateId);\r\n    }\r\n\r\n    function getCandidateCount() public view returns (uint256) {\r\n        return candidates.length;\r\n    }\r\n\r\n    function getCandidate(uint256 _candidateId) public view returns (uint256 id, string memory name, uint256 voteCount) {\r\n        require(_candidateId < candidates.length, \"Invalid candidate.\");\r\n\r\n        Candidate memory candidate = candidates[_candidateId];\r\n        return (candidate.id, candidate.name, candidate.voteCount);\r\n    }\r\n}\r\n",
  "sourcePath": "C:\\Users\\lumum\\Documents\\GitHub\\votin_system\\resources\\voting-dapp\\contracts\\Ballot.sol",
  "compiler": {
    "name": "solc",
    "version": "0.8.21+commit.d9974bed.Emscripten.clang"
  },
  "schemaVersion": "3.4.16",
  "updatedAt": "2024-03-29T16:30:02.334Z",
  "devdoc": {
    "kind": "dev",
    "methods": {},
    "version": 1
  },
  "userdoc": {
    "kind": "user",
    "methods": {},
    "version": 1
  }
}