{
  "contractName": "VoteContract",
  "abi": [
    {
      "inputs": [
        {
          "internalType": "address",
          "name": "",
          "type": "address"
        }
      ],
      "name": "hasVoted",
      "outputs": [
        {
          "internalType": "bool",
          "name": "",
          "type": "bool"
        }
      ],
      "stateMutability": "view",
      "type": "function"
    },
    {
      "inputs": [],
      "name": "voteCount",
      "outputs": [
        {
          "internalType": "uint256",
          "name": "",
          "type": "uint256"
        }
      ],
      "stateMutability": "view",
      "type": "function"
    },
    {
      "inputs": [
        {
          "internalType": "uint256",
          "name": "",
          "type": "uint256"
        }
      ],
      "name": "votes",
      "outputs": [
        {
          "internalType": "address",
          "name": "voter",
          "type": "address"
        },
        {
          "internalType": "uint256",
          "name": "positionId",
          "type": "uint256"
        },
        {
          "internalType": "uint256",
          "name": "candidateId",
          "type": "uint256"
        }
      ],
      "stateMutability": "view",
      "type": "function"
    },
    {
      "inputs": [
        {
          "internalType": "uint256",
          "name": "_positionId",
          "type": "uint256"
        },
        {
          "internalType": "uint256",
          "name": "_candidateId",
          "type": "uint256"
        }
      ],
      "name": "vote",
      "outputs": [],
      "stateMutability": "nonpayable",
      "type": "function"
    }
  ],
  "bytecode": "0x608060405234801561000f575f80fd5b506105ce8061001d5f395ff3fe608060405234801561000f575f80fd5b506004361061004a575f3560e01c806309eef43e1461004e5780635df813301461007e578063b384abef146100b0578063c6384071146100cc575b5f80fd5b61006860048036038101906100639190610346565b6100ea565b604051610075919061038b565b60405180910390f35b610098600480360381019061009391906103d7565b610106565b6040516100a793929190610420565b60405180910390f35b6100ca60048036038101906100c59190610455565b61014b565b005b6100d46102e2565b6040516100e19190610493565b60405180910390f35b5f602052805f5260405f205f915054906101000a900460ff1681565b6001602052805f5260405f205f91509050805f015f9054906101000a900473ffffffffffffffffffffffffffffffffffffffff16908060010154908060020154905083565b5f803373ffffffffffffffffffffffffffffffffffffffff1673ffffffffffffffffffffffffffffffffffffffff1681526020019081526020015f205f9054906101000a900460ff16156101d4576040517f08c379a00000000000000000000000000000000000000000000000000000000081526004016101cb90610506565b60405180910390fd5b60405180606001604052803373ffffffffffffffffffffffffffffffffffffffff1681526020018381526020018281525060015f60025481526020019081526020015f205f820151815f015f6101000a81548173ffffffffffffffffffffffffffffffffffffffff021916908373ffffffffffffffffffffffffffffffffffffffff160217905550602082015181600101556040820151816002015590505060025f81548092919061028590610551565b919050555060015f803373ffffffffffffffffffffffffffffffffffffffff1673ffffffffffffffffffffffffffffffffffffffff1681526020019081526020015f205f6101000a81548160ff0219169083151502179055505050565b60025481565b5f80fd5b5f73ffffffffffffffffffffffffffffffffffffffff82169050919050565b5f610315826102ec565b9050919050565b6103258161030b565b811461032f575f80fd5b50565b5f813590506103408161031c565b92915050565b5f6020828403121561035b5761035a6102e8565b5b5f61036884828501610332565b91505092915050565b5f8115159050919050565b61038581610371565b82525050565b5f60208201905061039e5f83018461037c565b92915050565b5f819050919050565b6103b6816103a4565b81146103c0575f80fd5b50565b5f813590506103d1816103ad565b92915050565b5f602082840312156103ec576103eb6102e8565b5b5f6103f9848285016103c3565b91505092915050565b61040b8161030b565b82525050565b61041a816103a4565b82525050565b5f6060820190506104335f830186610402565b6104406020830185610411565b61044d6040830184610411565b949350505050565b5f806040838503121561046b5761046a6102e8565b5b5f610478858286016103c3565b9250506020610489858286016103c3565b9150509250929050565b5f6020820190506104a65f830184610411565b92915050565b5f82825260208201905092915050565b7f596f75206861766520616c726561647920766f7465642e0000000000000000005f82015250565b5f6104f06017836104ac565b91506104fb826104bc565b602082019050919050565b5f6020820190508181035f83015261051d816104e4565b9050919050565b7f4e487b71000000000000000000000000000000000000000000000000000000005f52601160045260245ffd5b5f61055b826103a4565b91507fffffffffffffffffffffffffffffffffffffffffffffffffffffffffffffffff820361058d5761058c610524565b5b60018201905091905056fea264697066735822122007e28759c26584e1cb46ce61ba20608a25dc82abead1ca047520896e39af189764736f6c63430008150033",
  "immutableReferences": {},
  "source": "// SPDX-License-Identifier: MIT \r\n// VoteContract.sol\r\npragma solidity ^0.8.0;\r\n\r\ncontract VoteContract {\r\n    struct Vote {\r\n        address voter;\r\n        uint256 positionId;\r\n        uint256 candidateId;\r\n    }\r\n\r\n    mapping(address => bool) public hasVoted;\r\n    mapping(uint256 => Vote) public votes;\r\n    uint256 public voteCount;\r\n\r\n    function vote(uint256 _positionId, uint256 _candidateId) external {\r\n        require(!hasVoted[msg.sender], \"You have already voted.\");\r\n        \r\n        votes[voteCount] = Vote(msg.sender, _positionId, _candidateId);\r\n        voteCount++;\r\n        hasVoted[msg.sender] = true;\r\n    }\r\n}\r\n",
  "sourcePath": "C:\\Users\\lumum\\Documents\\GitHub\\votin_system\\resources\\voting-dapp\\contracts\\VoteContract.sol",
  "compiler": {
    "name": "solc",
    "version": "0.8.21+commit.d9974bed.Emscripten.clang"
  },
  "schemaVersion": "3.4.16",
  "updatedAt": "2024-03-29T13:41:15.625Z",
  "devdoc": {
    "kind": "dev",
    "methods": {},
    "version": 1
  },
  "userdoc": {
    "kind": "user",
    "methods": {},
    "version": 1
  }
}