{
  "contractName": "VoteContract",
  "abi": [
    {
      "inputs": [
        {
          "internalType": "address",
          "name": "",
          "type": "address"
        }
      ],
      "name": "hasVoted",
      "outputs": [
        {
          "internalType": "bool",
          "name": "",
          "type": "bool"
        }
      ],
      "stateMutability": "view",
      "type": "function"
    },
    {
      "inputs": [],
      "name": "voteCount",
      "outputs": [
        {
          "internalType": "uint256",
          "name": "",
          "type": "uint256"
        }
      ],
      "stateMutability": "view",
      "type": "function"
    },
    {
      "inputs": [
        {
          "internalType": "uint256",
          "name": "",
          "type": "uint256"
        }
      ],
      "name": "votes",
      "outputs": [
        {
          "internalType": "address",
          "name": "voter",
          "type": "address"
        },
        {
          "internalType": "uint256",
          "name": "positionId",
          "type": "uint256"
        },
        {
          "internalType": "uint256",
          "name": "candidateId",
          "type": "uint256"
        }
      ],
      "stateMutability": "view",
      "type": "function"
    },
    {
      "inputs": [
        {
          "internalType": "uint256",
          "name": "_positionId",
          "type": "uint256"
        },
        {
          "internalType": "uint256",
          "name": "_candidateId",
          "type": "uint256"
        }
      ],
      "name": "vote",
      "outputs": [],
      "stateMutability": "nonpayable",
      "type": "function"
    }
  ],
  "bytecode": "0x608060405234801561001057600080fd5b50610620806100206000396000f3fe608060405234801561001057600080fd5b5060043610610069576000357c01000000000000000000000000000000000000000000000000000000009004806309eef43e1461006e5780635df813301461009e578063b384abef146100d0578063c6384071146100ec575b600080fd5b61008860048036038101906100839190610380565b61010a565b60405161009591906103c8565b60405180910390f35b6100b860048036038101906100b39190610419565b61012a565b6040516100c793929190610464565b60405180910390f35b6100ea60048036038101906100e5919061049b565b610174565b005b6100f4610317565b60405161010191906104db565b60405180910390f35b60006020528060005260406000206000915054906101000a900460ff1681565b60016020528060005260406000206000915090508060000160009054906101000a900473ffffffffffffffffffffffffffffffffffffffff16908060010154908060020154905083565b6000803373ffffffffffffffffffffffffffffffffffffffff1673ffffffffffffffffffffffffffffffffffffffff16815260200190815260200160002060009054906101000a900460ff1615610200576040517f08c379a00000000000000000000000000000000000000000000000000000000081526004016101f790610553565b60405180910390fd5b60405180606001604052803373ffffffffffffffffffffffffffffffffffffffff1681526020018381526020018281525060016000600254815260200190815260200160002060008201518160000160006101000a81548173ffffffffffffffffffffffffffffffffffffffff021916908373ffffffffffffffffffffffffffffffffffffffff1602179055506020820151816001015560408201518160020155905050600260008154809291906102b7906105a2565b919050555060016000803373ffffffffffffffffffffffffffffffffffffffff1673ffffffffffffffffffffffffffffffffffffffff16815260200190815260200160002060006101000a81548160ff0219169083151502179055505050565b60025481565b600080fd5b600073ffffffffffffffffffffffffffffffffffffffff82169050919050565b600061034d82610322565b9050919050565b61035d81610342565b811461036857600080fd5b50565b60008135905061037a81610354565b92915050565b6000602082840312156103965761039561031d565b5b60006103a48482850161036b565b91505092915050565b60008115159050919050565b6103c2816103ad565b82525050565b60006020820190506103dd60008301846103b9565b92915050565b6000819050919050565b6103f6816103e3565b811461040157600080fd5b50565b600081359050610413816103ed565b92915050565b60006020828403121561042f5761042e61031d565b5b600061043d84828501610404565b91505092915050565b61044f81610342565b82525050565b61045e816103e3565b82525050565b60006060820190506104796000830186610446565b6104866020830185610455565b6104936040830184610455565b949350505050565b600080604083850312156104b2576104b161031d565b5b60006104c085828601610404565b92505060206104d185828601610404565b9150509250929050565b60006020820190506104f06000830184610455565b92915050565b600082825260208201905092915050565b7f596f75206861766520616c726561647920766f7465642e000000000000000000600082015250565b600061053d6017836104f6565b915061054882610507565b602082019050919050565b6000602082019050818103600083015261056c81610530565b9050919050565b7f4e487b7100000000000000000000000000000000000000000000000000000000600052601160045260246000fd5b60006105ad826103e3565b91507fffffffffffffffffffffffffffffffffffffffffffffffffffffffffffffffff82036105df576105de610573565b5b60018201905091905056fea2646970667358221220ed635bded3144d458c13ab0e8de9e45bc3c6300f7d72476294a0569688fb206c64736f6c63430008150033",
  "immutableReferences": {},
  "source": "// SPDX-License-Identifier: MIT \r\n// Election.sol\r\n// VoteContract.sol\r\npragma solidity ^0.8.0;\r\n\r\ncontract VoteContract {\r\n    struct Vote {\r\n        address voter;\r\n        uint256 positionId;\r\n        uint256 candidateId;\r\n    }\r\n\r\n    mapping(address => bool) public hasVoted;\r\n    mapping(uint256 => Vote) public votes;\r\n    uint256 public voteCount;\r\n\r\n    function vote(uint256 _positionId, uint256 _candidateId) external {\r\n        require(!hasVoted[msg.sender], \"You have already voted.\");\r\n        \r\n        votes[voteCount] = Vote(msg.sender, _positionId, _candidateId);\r\n        voteCount++;\r\n        hasVoted[msg.sender] = true;\r\n    }\r\n}\r\n",
  "sourcePath": "C:\\Users\\lumum\\Documents\\GitHub\\votin_system\\resources\\voting-dapp\\contracts\\Election.sol",
  "compiler": {
    "name": "solc",
    "version": "0.8.21+commit.d9974bed.Emscripten.clang"
  },
  "schemaVersion": "3.4.16",
  "updatedAt": "2024-03-28T22:15:50.514Z",
  "devdoc": {
    "kind": "dev",
    "methods": {},
    "version": 1
  },
  "userdoc": {
    "kind": "user",
    "methods": {},
    "version": 1
  }
}