{
  "contractName": "Ballot",
  "abi": [
    {
      "anonymous": false,
      "inputs": [
        {
          "indexed": true,
          "internalType": "address",
          "name": "voter",
          "type": "address"
        },
        {
          "indexed": false,
          "internalType": "uint256",
          "name": "positionId",
          "type": "uint256"
        },
        {
          "indexed": false,
          "internalType": "uint256",
          "name": "candidateId",
          "type": "uint256"
        }
      ],
      "name": "VoteRecorded",
      "type": "event"
    },
    {
      "inputs": [
        {
          "internalType": "address",
          "name": "",
          "type": "address"
        }
      ],
      "name": "hasVoted",
      "outputs": [
        {
          "internalType": "bool",
          "name": "",
          "type": "bool"
        }
      ],
      "stateMutability": "view",
      "type": "function",
      "constant": true
    },
    {
      "inputs": [
        {
          "internalType": "uint256",
          "name": "",
          "type": "uint256"
        }
      ],
      "name": "votes",
      "outputs": [
        {
          "internalType": "address",
          "name": "voter",
          "type": "address"
        },
        {
          "internalType": "uint256",
          "name": "positionId",
          "type": "uint256"
        },
        {
          "internalType": "uint256",
          "name": "candidateId",
          "type": "uint256"
        }
      ],
      "stateMutability": "view",
      "type": "function",
      "constant": true
    },
    {
      "inputs": [
        {
          "internalType": "uint256",
          "name": "_positionId",
          "type": "uint256"
        },
        {
          "internalType": "uint256",
          "name": "_candidateId",
          "type": "uint256"
        }
      ],
      "name": "saveLeader",
      "outputs": [],
      "stateMutability": "nonpayable",
      "type": "function"
    }
  ],
  "bytecode": "0x608060405234801561001057600080fd5b506105ce806100206000396000f3fe608060405234801561001057600080fd5b50600436106100415760003560e01c806309eef43e146100465780635df8133014610076578063be7570be146100a8575b600080fd5b610060600480360381019061005b9190610397565b6100c4565b60405161006d91906103df565b60405180910390f35b610090600480360381019061008b9190610430565b6100e4565b60405161009f9392919061047b565b60405180910390f35b6100c260048036038101906100bd91906104b2565b61013e565b005b60006020528060005260406000206000915054906101000a900460ff1681565b600181815481106100f457600080fd5b90600052602060002090600302016000915090508060000160009054906101000a900473ffffffffffffffffffffffffffffffffffffffff16908060010154908060020154905083565b6000803373ffffffffffffffffffffffffffffffffffffffff1673ffffffffffffffffffffffffffffffffffffffff16815260200190815260200160002060009054906101000a900460ff16156101ca576040517f08c379a00000000000000000000000000000000000000000000000000000000081526004016101c19061054f565b60405180910390fd5b600060405180606001604052803373ffffffffffffffffffffffffffffffffffffffff168152602001848152602001838152509050600181908060018154018082558091505060019003906000526020600020906003020160009091909190915060008201518160000160006101000a81548173ffffffffffffffffffffffffffffffffffffffff021916908373ffffffffffffffffffffffffffffffffffffffff1602179055506020820151816001015560408201518160020155505060016000803373ffffffffffffffffffffffffffffffffffffffff1673ffffffffffffffffffffffffffffffffffffffff16815260200190815260200160002060006101000a81548160ff0219169083151502179055503373ffffffffffffffffffffffffffffffffffffffff167f30befe21dd895620c3a73403f6e63aea5c3c6729202dbdc8eef2e8f8bd78de80848460405161032792919061056f565b60405180910390a2505050565b600080fd5b600073ffffffffffffffffffffffffffffffffffffffff82169050919050565b600061036482610339565b9050919050565b61037481610359565b811461037f57600080fd5b50565b6000813590506103918161036b565b92915050565b6000602082840312156103ad576103ac610334565b5b60006103bb84828501610382565b91505092915050565b60008115159050919050565b6103d9816103c4565b82525050565b60006020820190506103f460008301846103d0565b92915050565b6000819050919050565b61040d816103fa565b811461041857600080fd5b50565b60008135905061042a81610404565b92915050565b60006020828403121561044657610445610334565b5b60006104548482850161041b565b91505092915050565b61046681610359565b82525050565b610475816103fa565b82525050565b6000606082019050610490600083018661045d565b61049d602083018561046c565b6104aa604083018461046c565b949350505050565b600080604083850312156104c9576104c8610334565b5b60006104d78582860161041b565b92505060206104e88582860161041b565b9150509250929050565b600082825260208201905092915050565b7f596f75206861766520616c726561647920766f7465642e000000000000000000600082015250565b60006105396017836104f2565b915061054482610503565b602082019050919050565b600060208201905081810360008301526105688161052c565b9050919050565b6000604082019050610584600083018561046c565b610591602083018461046c565b939250505056fea2646970667358221220b3f8a31d72a7710a3e120407e208170e602fb99a78afca9bad30963de50bbffe64736f6c63430008130033",
  "immutableReferences": {},
  "source": "// SPDX-License-Identifier: MIT\r\npragma solidity ^0.8.19;\r\n\r\ncontract Ballot {\r\n    struct Vote {\r\n        address voter;\r\n        uint256 positionId;\r\n        uint256 candidateId;\r\n    }\r\n\r\n    mapping(address => bool) public hasVoted;\r\n    Vote[] public votes;\r\n\r\n    event VoteRecorded(address indexed voter, uint256 positionId, uint256 candidateId);\r\n\r\n    function saveLeader(uint256 _positionId, uint256 _candidateId) public {\r\n        require(!hasVoted[msg.sender], \"You have already voted.\");\r\n\r\n        // Store the vote\r\n        Vote memory newVote = Vote(msg.sender, _positionId, _candidateId);\r\n        votes.push(newVote);\r\n\r\n        // Mark voter as voted\r\n        hasVoted[msg.sender] = true;\r\n\r\n        // Emit an event\r\n        emit VoteRecorded(msg.sender, _positionId, _candidateId);\r\n    }\r\n}\r\n",
  "sourcePath": "C:\\Users\\lumum\\Documents\\GitHub\\votin_system\\resources\\v-DApp\\contracts\\Ballot.sol",
  "compiler": {
    "name": "solc",
    "version": "0.8.19+commit.7dd6d404.Emscripten.clang"
  },
  "schemaVersion": "3.4.16",
  "updatedAt": "2024-03-31T07:43:03.743Z",
  "networkType": "ethereum",
  "devdoc": {
    "kind": "dev",
    "methods": {},
    "version": 1
  },
  "userdoc": {
    "kind": "user",
    "methods": {},
    "version": 1
  }
}