{
  "contractName": "Voting",
  "abi": [
    {
      "inputs": [
        {
          "internalType": "string[]",
          "name": "_candidateNames",
          "type": "string[]"
        }
      ],
      "stateMutability": "nonpayable",
      "type": "constructor"
    },
    {
      "anonymous": false,
      "inputs": [
        {
          "indexed": false,
          "internalType": "uint256",
          "name": "candidateId",
          "type": "uint256"
        },
        {
          "indexed": false,
          "internalType": "string",
          "name": "name",
          "type": "string"
        }
      ],
      "name": "CandidateAdded",
      "type": "event"
    },
    {
      "anonymous": false,
      "inputs": [
        {
          "indexed": true,
          "internalType": "address",
          "name": "voter",
          "type": "address"
        },
        {
          "indexed": false,
          "internalType": "uint256",
          "name": "candidateId",
          "type": "uint256"
        }
      ],
      "name": "Voted",
      "type": "event"
    },
    {
      "inputs": [],
      "name": "candidateCount",
      "outputs": [
        {
          "internalType": "uint256",
          "name": "",
          "type": "uint256"
        }
      ],
      "stateMutability": "view",
      "type": "function",
      "constant": true
    },
    {
      "inputs": [
        {
          "internalType": "uint256",
          "name": "",
          "type": "uint256"
        }
      ],
      "name": "candidates",
      "outputs": [
        {
          "internalType": "string",
          "name": "name",
          "type": "string"
        },
        {
          "internalType": "uint256",
          "name": "voteCount",
          "type": "uint256"
        }
      ],
      "stateMutability": "view",
      "type": "function",
      "constant": true
    },
    {
      "inputs": [
        {
          "internalType": "address",
          "name": "",
          "type": "address"
        }
      ],
      "name": "voters",
      "outputs": [
        {
          "internalType": "bool",
          "name": "",
          "type": "bool"
        }
      ],
      "stateMutability": "view",
      "type": "function",
      "constant": true
    },
    {
      "inputs": [],
      "name": "votingClosed",
      "outputs": [
        {
          "internalType": "bool",
          "name": "",
          "type": "bool"
        }
      ],
      "stateMutability": "view",
      "type": "function",
      "constant": true
    },
    {
      "inputs": [
        {
          "internalType": "uint256",
          "name": "_candidateId",
          "type": "uint256"
        }
      ],
      "name": "vote",
      "outputs": [],
      "stateMutability": "nonpayable",
      "type": "function"
    },
    {
      "inputs": [],
      "name": "closeVoting",
      "outputs": [],
      "stateMutability": "nonpayable",
      "type": "function"
    },
    {
      "inputs": [
        {
          "internalType": "uint256",
          "name": "_candidateId",
          "type": "uint256"
        }
      ],
      "name": "getCandidateVoteCount",
      "outputs": [
        {
          "internalType": "uint256",
          "name": "",
          "type": "uint256"
        }
      ],
      "stateMutability": "view",
      "type": "function",
      "constant": true
    }
  ],
  "bytecode": "0x60806040523480156200001157600080fd5b506040516200127f3803806200127f833981810160405281019062000037919062000402565b60008151116200007e576040517f08c379a00000000000000000000000000000000000000000000000000000000081526004016200007590620004b4565b60405180910390fd5b60005b815181101562000163576040518060400160405280838381518110620000ac57620000ab620004d6565b5b6020026020010151815260200160008152506000808381526020019081526020016000206000820151816000019081620000e7919062000750565b50602082015181600101559050507fe83b2a43e7e82d975c8a0a6d2f045153c869e111136a34d1889ab7b598e396a3818383815181106200012d576200012c620004d6565b5b60200260200101516040516200014592919062000889565b60405180910390a180806200015a90620008ec565b91505062000081565b5080516002819055505062000939565b6000604051905090565b600080fd5b600080fd5b600080fd5b6000601f19601f8301169050919050565b7f4e487b7100000000000000000000000000000000000000000000000000000000600052604160045260246000fd5b620001d7826200018c565b810181811067ffffffffffffffff82111715620001f957620001f86200019d565b5b80604052505050565b60006200020e62000173565b90506200021c8282620001cc565b919050565b600067ffffffffffffffff8211156200023f576200023e6200019d565b5b602082029050602081019050919050565b600080fd5b600080fd5b600067ffffffffffffffff8211156200027857620002776200019d565b5b62000283826200018c565b9050602081019050919050565b60005b83811015620002b057808201518184015260208101905062000293565b60008484015250505050565b6000620002d3620002cd846200025a565b62000202565b905082815260208101848484011115620002f257620002f162000255565b5b620002ff84828562000290565b509392505050565b600082601f8301126200031f576200031e62000187565b5b815162000331848260208601620002bc565b91505092915050565b6000620003516200034b8462000221565b62000202565b9050808382526020820190506020840283018581111562000377576200037662000250565b5b835b81811015620003c557805167ffffffffffffffff811115620003a0576200039f62000187565b5b808601620003af898262000307565b8552602085019450505060208101905062000379565b5050509392505050565b600082601f830112620003e757620003e662000187565b5b8151620003f98482602086016200033a565b91505092915050565b6000602082840312156200041b576200041a6200017d565b5b600082015167ffffffffffffffff8111156200043c576200043b62000182565b5b6200044a84828501620003cf565b91505092915050565b600082825260208201905092915050565b7f4174206c65617374206f6e652063616e64696461746520726571756972656400600082015250565b60006200049c601f8362000453565b9150620004a98262000464565b602082019050919050565b60006020820190508181036000830152620004cf816200048d565b9050919050565b7f4e487b7100000000000000000000000000000000000000000000000000000000600052603260045260246000fd5b600081519050919050565b7f4e487b7100000000000000000000000000000000000000000000000000000000600052602260045260246000fd5b600060028204905060018216806200055857607f821691505b6020821081036200056e576200056d62000510565b5b50919050565b60008190508160005260206000209050919050565b60006020601f8301049050919050565b600082821b905092915050565b600060088302620005d87fffffffffffffffffffffffffffffffffffffffffffffffffffffffffffffffff8262000599565b620005e4868362000599565b95508019841693508086168417925050509392505050565b6000819050919050565b6000819050919050565b6000620006316200062b6200062584620005fc565b62000606565b620005fc565b9050919050565b6000819050919050565b6200064d8362000610565b620006656200065c8262000638565b848454620005a6565b825550505050565b600090565b6200067c6200066d565b6200068981848462000642565b505050565b5b81811015620006b157620006a560008262000672565b6001810190506200068f565b5050565b601f8211156200070057620006ca8162000574565b620006d58462000589565b81016020851015620006e5578190505b620006fd620006f48562000589565b8301826200068e565b50505b505050565b600082821c905092915050565b6000620007256000198460080262000705565b1980831691505092915050565b600062000740838362000712565b9150826002028217905092915050565b6200075b8262000505565b67ffffffffffffffff8111156200077757620007766200019d565b5b6200078382546200053f565b62000790828285620006b5565b600060209050601f831160018114620007c85760008415620007b3578287015190505b620007bf858262000732565b8655506200082f565b601f198416620007d88662000574565b60005b828110156200080257848901518255600182019150602085019450602081019050620007db565b868310156200082257848901516200081e601f89168262000712565b8355505b6001600288020188555050505b505050505050565b6200084281620005fc565b82525050565b6000620008558262000505565b62000861818562000453565b93506200087381856020860162000290565b6200087e816200018c565b840191505092915050565b6000604082019050620008a0600083018562000837565b8181036020830152620008b4818462000848565b90509392505050565b7f4e487b7100000000000000000000000000000000000000000000000000000000600052601160045260246000fd5b6000620008f982620005fc565b91507fffffffffffffffffffffffffffffffffffffffffffffffffffffffffffffffff82036200092e576200092d620008bd565b5b600182019050919050565b61093680620009496000396000f3fe608060405234801561001057600080fd5b506004361061007d5760003560e01c8063a3ec138d1161005b578063a3ec138d146100ed578063a9a981a31461011d578063b315c5971461013b578063c631b2921461016b5761007d565b80630121b93f146100825780632479ecb81461009e5780633477ee2e146100bc575b600080fd5b61009c6004803603810190610097919061050d565b610175565b005b6100a661036b565b6040516100b39190610555565b60405180910390f35b6100d660048036038101906100d1919061050d565b61037e565b6040516100e492919061060f565b60405180910390f35b6101076004803603810190610102919061069d565b61042a565b6040516101149190610555565b60405180910390f35b61012561044a565b60405161013291906106ca565b60405180910390f35b6101556004803603810190610150919061050d565b610450565b60405161016291906106ca565b60405180910390f35b6101736104b5565b005b600360009054906101000a900460ff16156101c5576040517f08c379a00000000000000000000000000000000000000000000000000000000081526004016101bc90610731565b60405180910390fd5b80600254811061020a576040517f08c379a00000000000000000000000000000000000000000000000000000000081526004016102019061079d565b60405180910390fd5b600160003373ffffffffffffffffffffffffffffffffffffffff1673ffffffffffffffffffffffffffffffffffffffff16815260200190815260200160002060009054906101000a900460ff1615610297576040517f08c379a000000000000000000000000000000000000000000000000000000000815260040161028e90610809565b60405180910390fd5b60008083815260200190815260200160002060010160008154809291906102bd90610858565b919050555060018060003373ffffffffffffffffffffffffffffffffffffffff1673ffffffffffffffffffffffffffffffffffffffff16815260200190815260200160002060006101000a81548160ff0219169083151502179055503373ffffffffffffffffffffffffffffffffffffffff167f4d99b957a2bc29a30ebd96a7be8e68fe50a3c701db28a91436490b7d53870ca48360405161035f91906106ca565b60405180910390a25050565b600360009054906101000a900460ff1681565b60006020528060005260406000206000915090508060000180546103a1906108cf565b80601f01602080910402602001604051908101604052809291908181526020018280546103cd906108cf565b801561041a5780601f106103ef5761010080835404028352916020019161041a565b820191906000526020600020905b8154815290600101906020018083116103fd57829003601f168201915b5050505050908060010154905082565b60016020528060005260406000206000915054906101000a900460ff1681565b60025481565b6000816002548110610497576040517f08c379a000000000000000000000000000000000000000000000000000000000815260040161048e9061079d565b60405180910390fd5b60008084815260200190815260200160002060010154915050919050565b6001600360006101000a81548160ff021916908315150217905550565b600080fd5b6000819050919050565b6104ea816104d7565b81146104f557600080fd5b50565b600081359050610507816104e1565b92915050565b600060208284031215610523576105226104d2565b5b6000610531848285016104f8565b91505092915050565b60008115159050919050565b61054f8161053a565b82525050565b600060208201905061056a6000830184610546565b92915050565b600081519050919050565b600082825260208201905092915050565b60005b838110156105aa57808201518184015260208101905061058f565b60008484015250505050565b6000601f19601f8301169050919050565b60006105d282610570565b6105dc818561057b565b93506105ec81856020860161058c565b6105f5816105b6565b840191505092915050565b610609816104d7565b82525050565b6000604082019050818103600083015261062981856105c7565b90506106386020830184610600565b9392505050565b600073ffffffffffffffffffffffffffffffffffffffff82169050919050565b600061066a8261063f565b9050919050565b61067a8161065f565b811461068557600080fd5b50565b60008135905061069781610671565b92915050565b6000602082840312156106b3576106b26104d2565b5b60006106c184828501610688565b91505092915050565b60006020820190506106df6000830184610600565b92915050565b7f566f74696e6720697320636c6f73656400000000000000000000000000000000600082015250565b600061071b60108361057b565b9150610726826106e5565b602082019050919050565b6000602082019050818103600083015261074a8161070e565b9050919050565b7f496e76616c69642063616e646964617465204944000000000000000000000000600082015250565b600061078760148361057b565b915061079282610751565b602082019050919050565b600060208201905081810360008301526107b68161077a565b9050919050565b7f596f75206861766520616c726561647920766f74656400000000000000000000600082015250565b60006107f360168361057b565b91506107fe826107bd565b602082019050919050565b60006020820190508181036000830152610822816107e6565b9050919050565b7f4e487b7100000000000000000000000000000000000000000000000000000000600052601160045260246000fd5b6000610863826104d7565b91507fffffffffffffffffffffffffffffffffffffffffffffffffffffffffffffffff820361089557610894610829565b5b600182019050919050565b7f4e487b7100000000000000000000000000000000000000000000000000000000600052602260045260246000fd5b600060028204905060018216806108e757607f821691505b6020821081036108fa576108f96108a0565b5b5091905056fea2646970667358221220cdcdd7d4c5b526169f8b6c06dd402934bb8532b0ac70fcdb96a59a67f556c25d64736f6c63430008130033",
  "immutableReferences": {},
  "source": "// SPDX-License-Identifier: MIT\r\npragma solidity ^0.8.0;\r\n\r\ncontract Voting {\r\n    struct Candidate {\r\n        string name;\r\n        uint256 voteCount;\r\n    }\r\n\r\n    mapping(uint256 => Candidate) public candidates;\r\n    mapping(address => bool) public voters;\r\n\r\n    uint256 public candidateCount;\r\n    bool public votingClosed;\r\n\r\n    event Voted(address indexed voter, uint256 candidateId);\r\n    event CandidateAdded(uint256 candidateId, string name);\r\n\r\n    modifier onlyWhileVotingOpen() {\r\n        require(!votingClosed, \"Voting is closed\");\r\n        _;\r\n    }\r\n\r\n    modifier onlyValidCandidate(uint256 _candidateId) {\r\n        require(_candidateId < candidateCount, \"Invalid candidate ID\");\r\n        _;\r\n    }\r\n\r\n    modifier onlyUniqueVoter() {\r\n        require(!voters[msg.sender], \"You have already voted\");\r\n        _;\r\n    }\r\n\r\n    constructor(string[] memory _candidateNames) {\r\n        require(_candidateNames.length > 0, \"At least one candidate required\");\r\n\r\n        for (uint256 i = 0; i < _candidateNames.length; i++) {\r\n            candidates[i] = Candidate(_candidateNames[i], 0);\r\n            emit CandidateAdded(i, _candidateNames[i]);\r\n        }\r\n        candidateCount = _candidateNames.length;\r\n    }\r\n\r\n    function vote(uint256 _candidateId) public onlyWhileVotingOpen onlyValidCandidate(_candidateId) onlyUniqueVoter {\r\n        candidates[_candidateId].voteCount++;\r\n        voters[msg.sender] = true;\r\n        emit Voted(msg.sender, _candidateId);\r\n    }\r\n\r\n    function closeVoting() public {\r\n        votingClosed = true;\r\n    }\r\n\r\n    function getCandidateVoteCount(uint256 _candidateId) public view onlyValidCandidate(_candidateId) returns (uint256) {\r\n        return candidates[_candidateId].voteCount;\r\n    }\r\n}\r\n",
  "sourcePath": "C:\\Users\\lumum\\Documents\\GitHub\\votin_system\\resources\\V-DApp\\contracts\\voting.sol",
  "compiler": {
    "name": "solc",
    "version": "0.8.19+commit.7dd6d404.Emscripten.clang"
  },
  "schemaVersion": "3.4.16",
  "updatedAt": "2024-04-02T18:41:13.233Z",
  "networkType": "ethereum",
  "devdoc": {
    "kind": "dev",
    "methods": {},
    "version": 1
  },
  "userdoc": {
    "kind": "user",
    "methods": {},
    "version": 1
  }
}